{
  "address": "0x3383a6322F47353De806C4C9F981767700606051",
  "abi": [
    {
      "inputs": [
        {
          "internalType": "address",
          "name": "priceFeedAddress",
          "type": "address"
        },
        {
          "internalType": "string",
          "name": "lowSvg",
          "type": "string"
        },
        {
          "internalType": "string",
          "name": "highSvg",
          "type": "string"
        }
      ],
      "stateMutability": "nonpayable",
      "type": "constructor"
    },
    {
      "anonymous": false,
      "inputs": [
        {
          "indexed": true,
          "internalType": "address",
          "name": "owner",
          "type": "address"
        },
        {
          "indexed": true,
          "internalType": "address",
          "name": "approved",
          "type": "address"
        },
        {
          "indexed": true,
          "internalType": "uint256",
          "name": "tokenId",
          "type": "uint256"
        }
      ],
      "name": "Approval",
      "type": "event"
    },
    {
      "anonymous": false,
      "inputs": [
        {
          "indexed": true,
          "internalType": "address",
          "name": "owner",
          "type": "address"
        },
        {
          "indexed": true,
          "internalType": "address",
          "name": "operator",
          "type": "address"
        },
        {
          "indexed": false,
          "internalType": "bool",
          "name": "approved",
          "type": "bool"
        }
      ],
      "name": "ApprovalForAll",
      "type": "event"
    },
    {
      "anonymous": false,
      "inputs": [
        {
          "indexed": true,
          "internalType": "uint256",
          "name": "tokenId",
          "type": "uint256"
        },
        {
          "indexed": false,
          "internalType": "int256",
          "name": "highValue",
          "type": "int256"
        }
      ],
      "name": "CreatedNFT",
      "type": "event"
    },
    {
      "anonymous": false,
      "inputs": [
        {
          "indexed": true,
          "internalType": "address",
          "name": "previousOwner",
          "type": "address"
        },
        {
          "indexed": true,
          "internalType": "address",
          "name": "newOwner",
          "type": "address"
        }
      ],
      "name": "OwnershipTransferred",
      "type": "event"
    },
    {
      "anonymous": false,
      "inputs": [
        {
          "indexed": true,
          "internalType": "address",
          "name": "from",
          "type": "address"
        },
        {
          "indexed": true,
          "internalType": "address",
          "name": "to",
          "type": "address"
        },
        {
          "indexed": true,
          "internalType": "uint256",
          "name": "tokenId",
          "type": "uint256"
        }
      ],
      "name": "Transfer",
      "type": "event"
    },
    {
      "inputs": [
        {
          "internalType": "address",
          "name": "to",
          "type": "address"
        },
        {
          "internalType": "uint256",
          "name": "tokenId",
          "type": "uint256"
        }
      ],
      "name": "approve",
      "outputs": [],
      "stateMutability": "nonpayable",
      "type": "function"
    },
    {
      "inputs": [
        {
          "internalType": "address",
          "name": "owner",
          "type": "address"
        }
      ],
      "name": "balanceOf",
      "outputs": [
        {
          "internalType": "uint256",
          "name": "",
          "type": "uint256"
        }
      ],
      "stateMutability": "view",
      "type": "function"
    },
    {
      "inputs": [
        {
          "internalType": "uint256",
          "name": "tokenId",
          "type": "uint256"
        }
      ],
      "name": "getApproved",
      "outputs": [
        {
          "internalType": "address",
          "name": "",
          "type": "address"
        }
      ],
      "stateMutability": "view",
      "type": "function"
    },
    {
      "inputs": [],
      "name": "getHighSVG",
      "outputs": [
        {
          "internalType": "string",
          "name": "",
          "type": "string"
        }
      ],
      "stateMutability": "view",
      "type": "function"
    },
    {
      "inputs": [],
      "name": "getLowSVG",
      "outputs": [
        {
          "internalType": "string",
          "name": "",
          "type": "string"
        }
      ],
      "stateMutability": "view",
      "type": "function"
    },
    {
      "inputs": [],
      "name": "getPriceFeed",
      "outputs": [
        {
          "internalType": "contract AggregatorV3Interface",
          "name": "",
          "type": "address"
        }
      ],
      "stateMutability": "view",
      "type": "function"
    },
    {
      "inputs": [],
      "name": "getTokenCounter",
      "outputs": [
        {
          "internalType": "uint256",
          "name": "",
          "type": "uint256"
        }
      ],
      "stateMutability": "view",
      "type": "function"
    },
    {
      "inputs": [
        {
          "internalType": "address",
          "name": "owner",
          "type": "address"
        },
        {
          "internalType": "address",
          "name": "operator",
          "type": "address"
        }
      ],
      "name": "isApprovedForAll",
      "outputs": [
        {
          "internalType": "bool",
          "name": "",
          "type": "bool"
        }
      ],
      "stateMutability": "view",
      "type": "function"
    },
    {
      "inputs": [
        {
          "internalType": "int256",
          "name": "highValue",
          "type": "int256"
        }
      ],
      "name": "mintNft",
      "outputs": [],
      "stateMutability": "nonpayable",
      "type": "function"
    },
    {
      "inputs": [],
      "name": "name",
      "outputs": [
        {
          "internalType": "string",
          "name": "",
          "type": "string"
        }
      ],
      "stateMutability": "view",
      "type": "function"
    },
    {
      "inputs": [],
      "name": "owner",
      "outputs": [
        {
          "internalType": "address",
          "name": "",
          "type": "address"
        }
      ],
      "stateMutability": "view",
      "type": "function"
    },
    {
      "inputs": [
        {
          "internalType": "uint256",
          "name": "tokenId",
          "type": "uint256"
        }
      ],
      "name": "ownerOf",
      "outputs": [
        {
          "internalType": "address",
          "name": "",
          "type": "address"
        }
      ],
      "stateMutability": "view",
      "type": "function"
    },
    {
      "inputs": [],
      "name": "renounceOwnership",
      "outputs": [],
      "stateMutability": "nonpayable",
      "type": "function"
    },
    {
      "inputs": [
        {
          "internalType": "address",
          "name": "from",
          "type": "address"
        },
        {
          "internalType": "address",
          "name": "to",
          "type": "address"
        },
        {
          "internalType": "uint256",
          "name": "tokenId",
          "type": "uint256"
        }
      ],
      "name": "safeTransferFrom",
      "outputs": [],
      "stateMutability": "nonpayable",
      "type": "function"
    },
    {
      "inputs": [
        {
          "internalType": "address",
          "name": "from",
          "type": "address"
        },
        {
          "internalType": "address",
          "name": "to",
          "type": "address"
        },
        {
          "internalType": "uint256",
          "name": "tokenId",
          "type": "uint256"
        },
        {
          "internalType": "bytes",
          "name": "data",
          "type": "bytes"
        }
      ],
      "name": "safeTransferFrom",
      "outputs": [],
      "stateMutability": "nonpayable",
      "type": "function"
    },
    {
      "inputs": [
        {
          "internalType": "address",
          "name": "operator",
          "type": "address"
        },
        {
          "internalType": "bool",
          "name": "approved",
          "type": "bool"
        }
      ],
      "name": "setApprovalForAll",
      "outputs": [],
      "stateMutability": "nonpayable",
      "type": "function"
    },
    {
      "inputs": [
        {
          "internalType": "bytes4",
          "name": "interfaceId",
          "type": "bytes4"
        }
      ],
      "name": "supportsInterface",
      "outputs": [
        {
          "internalType": "bool",
          "name": "",
          "type": "bool"
        }
      ],
      "stateMutability": "view",
      "type": "function"
    },
    {
      "inputs": [
        {
          "internalType": "string",
          "name": "svg",
          "type": "string"
        }
      ],
      "name": "svgToImageURI",
      "outputs": [
        {
          "internalType": "string",
          "name": "",
          "type": "string"
        }
      ],
      "stateMutability": "pure",
      "type": "function"
    },
    {
      "inputs": [],
      "name": "symbol",
      "outputs": [
        {
          "internalType": "string",
          "name": "",
          "type": "string"
        }
      ],
      "stateMutability": "view",
      "type": "function"
    },
    {
      "inputs": [
        {
          "internalType": "uint256",
          "name": "tokenId",
          "type": "uint256"
        }
      ],
      "name": "tokenURI",
      "outputs": [
        {
          "internalType": "string",
          "name": "",
          "type": "string"
        }
      ],
      "stateMutability": "view",
      "type": "function"
    },
    {
      "inputs": [
        {
          "internalType": "address",
          "name": "from",
          "type": "address"
        },
        {
          "internalType": "address",
          "name": "to",
          "type": "address"
        },
        {
          "internalType": "uint256",
          "name": "tokenId",
          "type": "uint256"
        }
      ],
      "name": "transferFrom",
      "outputs": [],
      "stateMutability": "nonpayable",
      "type": "function"
    },
    {
      "inputs": [
        {
          "internalType": "address",
          "name": "newOwner",
          "type": "address"
        }
      ],
      "name": "transferOwnership",
      "outputs": [],
      "stateMutability": "nonpayable",
      "type": "function"
    }
  ],
  "transactionHash": "0x08ae918098a321d1e261cb588b6b0aaa1afca8a1d1aca601eb4db27e964cf392",
  "args": [
    "0x694AA1769357215DE4FAC081bf1f309aDC325306",
    "<?xml version=\"1.0\" standalone=\"no\"?>\n<svg width=\"1024px\" height=\"1024px\" viewBox=\"0 0 1024 1024\" xmlns=\"http://www.w3.org/2000/svg\">\n  <path fill=\"#333\" d=\"M512 64C264.6 64 64 264.6 64 512s200.6 448 448 448 448-200.6 448-448S759.4 64 512 64zm0 820c-205.4 0-372-166.6-372-372s166.6-372 372-372 372 166.6 372 372-166.6 372-372 372z\"/>\n  <path fill=\"#E6E6E6\" d=\"M512 140c-205.4 0-372 166.6-372 372s166.6 372 372 372 372-166.6 372-372-166.6-372-372-372zM288 421a48.01 48.01 0 0 1 96 0 48.01 48.01 0 0 1-96 0zm376 272h-48.1c-4.2 0-7.8-3.2-8.1-7.4C604 636.1 562.5 597 512 597s-92.1 39.1-95.8 88.6c-.3 4.2-3.9 7.4-8.1 7.4H360a8 8 0 0 1-8-8.4c4.4-84.3 74.5-151.6 160-151.6s155.6 67.3 160 151.6a8 8 0 0 1-8 8.4zm24-224a48.01 48.01 0 0 1 0-96 48.01 48.01 0 0 1 0 96z\"/>\n  <path fill=\"#333\" d=\"M288 421a48 48 0 1 0 96 0 48 48 0 1 0-96 0zm224 112c-85.5 0-155.6 67.3-160 151.6a8 8 0 0 0 8 8.4h48.1c4.2 0 7.8-3.2 8.1-7.4 3.7-49.5 45.3-88.6 95.8-88.6s92 39.1 95.8 88.6c.3 4.2 3.9 7.4 8.1 7.4H664a8 8 0 0 0 8-8.4C667.6 600.3 597.5 533 512 533zm128-112a48 48 0 1 0 96 0 48 48 0 1 0-96 0z\"/>\n</svg>\n",
    "<svg viewBox=\"0 0 200 200\" width=\"400\"  height=\"400\" xmlns=\"http://www.w3.org/2000/svg\">\n  <circle cx=\"100\" cy=\"100\" fill=\"yellow\" r=\"78\" stroke=\"black\" stroke-width=\"3\"/>\n  <g class=\"eyes\">\n    <circle cx=\"61\" cy=\"82\" r=\"12\"/>\n    <circle cx=\"127\" cy=\"82\" r=\"12\"/>\n  </g>\n  <path d=\"m136.81 116.53c.69 26.17-64.11 42-81.52-.73\" style=\"fill:none; stroke: black; stroke-width: 3;\"/>\n</svg>"
  ],
  "numDeployments": 1,
  "solcInputHash": "e9f28de72f35e6dc152e55ca77051767",
  "bytecode": "0x60a06040523480156200001157600080fd5b5060405162003e9038038062003e908339818101604052810190620000379190620005d6565b6040518060400160405280600f81526020017f44796e616d696320535647204e465400000000000000000000000000000000008152506040518060400160405280600381526020017f44534e00000000000000000000000000000000000000000000000000000000008152508160009080519060200190620000bb92919062000491565b508060019080519060200190620000d492919062000491565b505050620000f7620000eb6200019160201b60201c565b6200019960201b60201c565b60006007819055508273ffffffffffffffffffffffffffffffffffffffff1660808173ffffffffffffffffffffffffffffffffffffffff1660601b8152505062000147826200025f60201b60201c565b600890805190602001906200015e92919062000491565b5062000170816200025f60201b60201c565b600990805190602001906200018792919062000491565b5050505062000a2e565b600033905090565b6000600660009054906101000a900473ffffffffffffffffffffffffffffffffffffffff16905081600660006101000a81548173ffffffffffffffffffffffffffffffffffffffff021916908373ffffffffffffffffffffffffffffffffffffffff1602179055508173ffffffffffffffffffffffffffffffffffffffff168173ffffffffffffffffffffffffffffffffffffffff167f8be0079c531659141344cd1fd0a4f28419497f9722a3daafe3b4186f6b6457e060405160405180910390a35050565b606060006040518060400160405280601a81526020017f646174613a696d6167652f7376672b786d6c3b6261736536342c00000000000081525090506000620002d484604051602001620002b49190620006a7565b6040516020818303038152906040526200030360201b620010121760201c565b90508181604051602001620002eb929190620006c0565b60405160208183030381529060405292505050919050565b606060008251141562000328576040518060200160405280600081525090506200048c565b600060405180606001604052806040815260200162003e5060409139905060006003600285516200035a91906200075d565b620003669190620007ba565b6004620003749190620007f2565b905060006020826200038791906200075d565b67ffffffffffffffff811115620003a357620003a2620009c0565b5b6040519080825280601f01601f191660200182016040528015620003d65781602001600182028036833780820191505090505b509050818152600183018586518101602084015b8183101562000447576003830192508251603f8160121c168501518253600182019150603f81600c1c168501518253600182019150603f8160061c168501518253600182019150603f8116850151825360018201915050620003ea565b600389510660018114620004645760028114620004755762000480565b613d3d60f01b600283035262000480565b603d60f81b60018303525b50505050508093505050505b919050565b8280546200049f90620008c7565b90600052602060002090601f016020900481019282620004c357600085556200050f565b82601f10620004de57805160ff19168380011785556200050f565b828001600101855582156200050f579182015b828111156200050e578251825591602001919060010190620004f1565b5b5090506200051e919062000522565b5090565b5b808211156200053d57600081600090555060010162000523565b5090565b600062000558620005528462000711565b620006e8565b905082815260208101848484011115620005775762000576620009f4565b5b6200058484828562000891565b509392505050565b6000815190506200059d8162000a14565b92915050565b600082601f830112620005bb57620005ba620009ef565b5b8151620005cd84826020860162000541565b91505092915050565b600080600060608486031215620005f257620005f1620009fe565b5b600062000602868287016200058c565b935050602084015167ffffffffffffffff811115620006265762000625620009f9565b5b6200063486828701620005a3565b925050604084015167ffffffffffffffff811115620006585762000657620009f9565b5b6200066686828701620005a3565b9150509250925092565b60006200067d8262000747565b62000689818562000752565b93506200069b81856020860162000891565b80840191505092915050565b6000620006b5828462000670565b915081905092915050565b6000620006ce828562000670565b9150620006dc828462000670565b91508190509392505050565b6000620006f462000707565b9050620007028282620008fd565b919050565b6000604051905090565b600067ffffffffffffffff8211156200072f576200072e620009c0565b5b6200073a8262000a03565b9050602081019050919050565b600081519050919050565b600081905092915050565b60006200076a8262000887565b9150620007778362000887565b9250827fffffffffffffffffffffffffffffffffffffffffffffffffffffffffffffffff03821115620007af57620007ae62000933565b5b828201905092915050565b6000620007c78262000887565b9150620007d48362000887565b925082620007e757620007e662000962565b5b828204905092915050565b6000620007ff8262000887565b91506200080c8362000887565b9250817fffffffffffffffffffffffffffffffffffffffffffffffffffffffffffffffff048311821515161562000848576200084762000933565b5b828202905092915050565b6000620008608262000867565b9050919050565b600073ffffffffffffffffffffffffffffffffffffffff82169050919050565b6000819050919050565b60005b83811015620008b157808201518184015260208101905062000894565b83811115620008c1576000848401525b50505050565b60006002820490506001821680620008e057607f821691505b60208210811415620008f757620008f662000991565b5b50919050565b620009088262000a03565b810181811067ffffffffffffffff821117156200092a5762000929620009c0565b5b80604052505050565b7f4e487b7100000000000000000000000000000000000000000000000000000000600052601160045260246000fd5b7f4e487b7100000000000000000000000000000000000000000000000000000000600052601260045260246000fd5b7f4e487b7100000000000000000000000000000000000000000000000000000000600052602260045260246000fd5b7f4e487b7100000000000000000000000000000000000000000000000000000000600052604160045260246000fd5b600080fd5b600080fd5b600080fd5b600080fd5b6000601f19601f8301169050919050565b62000a1f8162000853565b811462000a2b57600080fd5b50565b60805160601c6133fc62000a5460003960008181610b430152610c2d01526133fc6000f3fe608060405234801561001057600080fd5b50600436106101425760003560e01c8063715018a6116100b8578063a22cb4651161007c578063a22cb46514610365578063b88d4fde14610381578063c87b56dd1461039d578063e985e9c5146103cd578063ed28a122146103fd578063f2fde38b1461041b57610142565b8063715018a6146102e357806376f6056b146102ed5780638da5cb5b1461030b57806395d89b41146103295780639e87a5cd1461034757610142565b806323b872dd1161010a57806323b872dd146101fd57806330d871c61461021957806342842e0e146102495780636352211e146102655780636e02007d1461029557806370a08231146102b357610142565b806301ffc9a71461014757806306fdde0314610177578063081812fc14610195578063095ea7b3146101c55780631e930812146101e1575b600080fd5b610161600480360381019061015c9190612215565b610437565b60405161016e91906127e3565b60405180910390f35b61017f610519565b60405161018c9190612834565b60405180910390f35b6101af60048036038101906101aa91906122e5565b6105ab565b6040516101bc919061277c565b60405180910390f35b6101df60048036038101906101da91906121d5565b6105f1565b005b6101fb60048036038101906101f6919061226f565b610709565b005b610217600480360381019061021291906120bf565b610781565b005b610233600480360381019061022e919061229c565b6107e1565b6040516102409190612834565b60405180910390f35b610263600480360381019061025e91906120bf565b610874565b005b61027f600480360381019061027a91906122e5565b610894565b60405161028c919061277c565b60405180910390f35b61029d61091b565b6040516102aa9190612a16565b60405180910390f35b6102cd60048036038101906102c89190612052565b610925565b6040516102da9190612a16565b60405180910390f35b6102eb6109dd565b005b6102f56109f1565b6040516103029190612834565b60405180910390f35b610313610a83565b604051610320919061277c565b60405180910390f35b610331610aad565b60405161033e9190612834565b60405180910390f35b61034f610b3f565b60405161035c91906127fe565b60405180910390f35b61037f600480360381019061037a9190612195565b610b67565b005b61039b60048036038101906103969190612112565b610b7d565b005b6103b760048036038101906103b291906122e5565b610bdf565b6040516103c49190612834565b60405180910390f35b6103e760048036038101906103e2919061207f565b610e68565b6040516103f491906127e3565b60405180910390f35b610405610efc565b6040516104129190612834565b60405180910390f35b61043560048036038101906104309190612052565b610f8e565b005b60007f80ac58cd000000000000000000000000000000000000000000000000000000007bffffffffffffffffffffffffffffffffffffffffffffffffffffffff1916827bffffffffffffffffffffffffffffffffffffffffffffffffffffffff1916148061050257507f5b5e139f000000000000000000000000000000000000000000000000000000007bffffffffffffffffffffffffffffffffffffffffffffffffffffffff1916827bffffffffffffffffffffffffffffffffffffffffffffffffffffffff1916145b8061051257506105118261118b565b5b9050919050565b60606000805461052890612ce8565b80601f016020809104026020016040519081016040528092919081815260200182805461055490612ce8565b80156105a15780601f10610576576101008083540402835291602001916105a1565b820191906000526020600020905b81548152906001019060200180831161058457829003601f168201915b5050505050905090565b60006105b6826111f5565b6004600083815260200190815260200160002060009054906101000a900473ffffffffffffffffffffffffffffffffffffffff169050919050565b60006105fc82610894565b90508073ffffffffffffffffffffffffffffffffffffffff168373ffffffffffffffffffffffffffffffffffffffff16141561066d576040517f08c379a0000000000000000000000000000000000000000000000000000000008152600401610664906129d6565b60405180910390fd5b8073ffffffffffffffffffffffffffffffffffffffff1661068c611240565b73ffffffffffffffffffffffffffffffffffffffff1614806106bb57506106ba816106b5611240565b610e68565b5b6106fa576040517f08c379a00000000000000000000000000000000000000000000000000000000081526004016106f1906129f6565b60405180910390fd5b6107048383611248565b505050565b80600a60006007548152602001908152602001600020819055506007547f882d3b5a729a8bb95cf6c0083c99b42ecd9637123d4425bd7b768877fd8af8b0826040516107559190612819565b60405180910390a261076933600754611301565b60016007546107789190612afb565b60078190555050565b61079261078c611240565b8261131f565b6107d1576040517f08c379a00000000000000000000000000000000000000000000000000000000081526004016107c890612856565b60405180910390fd5b6107dc8383836113b4565b505050565b606060006040518060400160405280601a81526020017f646174613a696d6167652f7376672b786d6c3b6261736536342c000000000000815250905060006108478460405160200161083391906126f1565b604051602081830303815290604052611012565b9050818160405160200161085c929190612708565b60405160208183030381529060405292505050919050565b61088f83838360405180602001604052806000815250610b7d565b505050565b6000806108a0836116ae565b9050600073ffffffffffffffffffffffffffffffffffffffff168173ffffffffffffffffffffffffffffffffffffffff161415610912576040517f08c379a0000000000000000000000000000000000000000000000000000000008152600401610909906129b6565b60405180910390fd5b80915050919050565b6000600754905090565b60008073ffffffffffffffffffffffffffffffffffffffff168273ffffffffffffffffffffffffffffffffffffffff161415610996576040517f08c379a000000000000000000000000000000000000000000000000000000000815260040161098d90612936565b60405180910390fd5b600360008373ffffffffffffffffffffffffffffffffffffffff1673ffffffffffffffffffffffffffffffffffffffff168152602001908152602001600020549050919050565b6109e56116eb565b6109ef6000611769565b565b606060098054610a0090612ce8565b80601f0160208091040260200160405190810160405280929190818152602001828054610a2c90612ce8565b8015610a795780601f10610a4e57610100808354040283529160200191610a79565b820191906000526020600020905b815481529060010190602001808311610a5c57829003601f168201915b5050505050905090565b6000600660009054906101000a900473ffffffffffffffffffffffffffffffffffffffff16905090565b606060018054610abc90612ce8565b80601f0160208091040260200160405190810160405280929190818152602001828054610ae890612ce8565b8015610b355780601f10610b0a57610100808354040283529160200191610b35565b820191906000526020600020905b815481529060010190602001808311610b1857829003601f168201915b5050505050905090565b60007f0000000000000000000000000000000000000000000000000000000000000000905090565b610b79610b72611240565b838361182f565b5050565b610b8e610b88611240565b8361131f565b610bcd576040517f08c379a0000000000000000000000000000000000000000000000000000000008152600401610bc490612856565b60405180910390fd5b610bd98484848461199c565b50505050565b6060610bea826119f8565b610c29576040517f08c379a0000000000000000000000000000000000000000000000000000000008152600401610c2090612996565b60405180910390fd5b60007f000000000000000000000000000000000000000000000000000000000000000073ffffffffffffffffffffffffffffffffffffffff1663feaf968c6040518163ffffffff1660e01b815260040160a06040518083038186803b158015610c9157600080fd5b505afa158015610ca5573d6000803e3d6000fd5b505050506040513d601f19601f82011682018060405250810190610cc99190612312565b505050915050600060088054610cde90612ce8565b80601f0160208091040260200160405190810160405280929190818152602001828054610d0a90612ce8565b8015610d575780601f10610d2c57610100808354040283529160200191610d57565b820191906000526020600020905b815481529060010190602001808311610d3a57829003601f168201915b50505050509050600a6000858152602001908152602001600020548212610e065760098054610d8590612ce8565b80601f0160208091040260200160405190810160405280929190818152602001828054610db190612ce8565b8015610dfe5780601f10610dd357610100808354040283529160200191610dfe565b820191906000526020600020905b815481529060010190602001808311610de157829003601f168201915b505050505090505b610e0e611a39565b610e3f610e19610519565b83604051602001610e2b92919061272c565b604051602081830303815290604052611012565b604051602001610e50929190612708565b60405160208183030381529060405292505050919050565b6000600560008473ffffffffffffffffffffffffffffffffffffffff1673ffffffffffffffffffffffffffffffffffffffff16815260200190815260200160002060008373ffffffffffffffffffffffffffffffffffffffff1673ffffffffffffffffffffffffffffffffffffffff16815260200190815260200160002060009054906101000a900460ff16905092915050565b606060088054610f0b90612ce8565b80601f0160208091040260200160405190810160405280929190818152602001828054610f3790612ce8565b8015610f845780601f10610f5957610100808354040283529160200191610f84565b820191906000526020600020905b815481529060010190602001808311610f6757829003601f168201915b5050505050905090565b610f966116eb565b600073ffffffffffffffffffffffffffffffffffffffff168173ffffffffffffffffffffffffffffffffffffffff161415611006576040517f08c379a0000000000000000000000000000000000000000000000000000000008152600401610ffd90612896565b60405180910390fd5b61100f81611769565b50565b606060008251141561103557604051806020016040528060008152509050611186565b600060405180606001604052806040815260200161338760409139905060006003600285516110649190612afb565b61106e9190612b51565b600461107a9190612b82565b9050600060208261108b9190612afb565b67ffffffffffffffff8111156110a4576110a3612dd8565b5b6040519080825280601f01601f1916602001820160405280156110d65781602001600182028036833780820191505090505b509050818152600183018586518101602084015b81831015611145576003830192508251603f8160121c168501518253600182019150603f81600c1c168501518253600182019150603f8160061c168501518253600182019150603f81168501518253600182019150506110ea565b60038951066001811461115f576002811461116f5761117a565b613d3d60f01b600283035261117a565b603d60f81b60018303525b50505050508093505050505b919050565b60007f01ffc9a7000000000000000000000000000000000000000000000000000000007bffffffffffffffffffffffffffffffffffffffffffffffffffffffff1916827bffffffffffffffffffffffffffffffffffffffffffffffffffffffff1916149050919050565b6111fe816119f8565b61123d576040517f08c379a0000000000000000000000000000000000000000000000000000000008152600401611234906129b6565b60405180910390fd5b50565b600033905090565b816004600083815260200190815260200160002060006101000a81548173ffffffffffffffffffffffffffffffffffffffff021916908373ffffffffffffffffffffffffffffffffffffffff160217905550808273ffffffffffffffffffffffffffffffffffffffff166112bb83610894565b73ffffffffffffffffffffffffffffffffffffffff167f8c5be1e5ebec7d5bd14f71427d1e84f3dd0314c0f7b2291e5b200ac8c7c3b92560405160405180910390a45050565b61131b828260405180602001604052806000815250611a76565b5050565b60008061132b83610894565b90508073ffffffffffffffffffffffffffffffffffffffff168473ffffffffffffffffffffffffffffffffffffffff16148061136d575061136c8185610e68565b5b806113ab57508373ffffffffffffffffffffffffffffffffffffffff16611393846105ab565b73ffffffffffffffffffffffffffffffffffffffff16145b91505092915050565b8273ffffffffffffffffffffffffffffffffffffffff166113d482610894565b73ffffffffffffffffffffffffffffffffffffffff161461142a576040517f08c379a0000000000000000000000000000000000000000000000000000000008152600401611421906128b6565b60405180910390fd5b600073ffffffffffffffffffffffffffffffffffffffff168273ffffffffffffffffffffffffffffffffffffffff16141561149a576040517f08c379a0000000000000000000000000000000000000000000000000000000008152600401611491906128f6565b60405180910390fd5b6114a78383836001611ad1565b8273ffffffffffffffffffffffffffffffffffffffff166114c782610894565b73ffffffffffffffffffffffffffffffffffffffff161461151d576040517f08c379a0000000000000000000000000000000000000000000000000000000008152600401611514906128b6565b60405180910390fd5b6004600082815260200190815260200160002060006101000a81549073ffffffffffffffffffffffffffffffffffffffff02191690556001600360008573ffffffffffffffffffffffffffffffffffffffff1673ffffffffffffffffffffffffffffffffffffffff168152602001908152602001600020600082825403925050819055506001600360008473ffffffffffffffffffffffffffffffffffffffff1673ffffffffffffffffffffffffffffffffffffffff16815260200190815260200160002060008282540192505081905550816002600083815260200190815260200160002060006101000a81548173ffffffffffffffffffffffffffffffffffffffff021916908373ffffffffffffffffffffffffffffffffffffffff160217905550808273ffffffffffffffffffffffffffffffffffffffff168473ffffffffffffffffffffffffffffffffffffffff167fddf252ad1be2c89b69c2b068fc378daa952ba7f163c4a11628f55a4df523b3ef60405160405180910390a46116a98383836001611ad7565b505050565b60006002600083815260200190815260200160002060009054906101000a900473ffffffffffffffffffffffffffffffffffffffff169050919050565b6116f3611240565b73ffffffffffffffffffffffffffffffffffffffff16611711610a83565b73ffffffffffffffffffffffffffffffffffffffff1614611767576040517f08c379a000000000000000000000000000000000000000000000000000000000815260040161175e90612976565b60405180910390fd5b565b6000600660009054906101000a900473ffffffffffffffffffffffffffffffffffffffff16905081600660006101000a81548173ffffffffffffffffffffffffffffffffffffffff021916908373ffffffffffffffffffffffffffffffffffffffff1602179055508173ffffffffffffffffffffffffffffffffffffffff168173ffffffffffffffffffffffffffffffffffffffff167f8be0079c531659141344cd1fd0a4f28419497f9722a3daafe3b4186f6b6457e060405160405180910390a35050565b8173ffffffffffffffffffffffffffffffffffffffff168373ffffffffffffffffffffffffffffffffffffffff16141561189e576040517f08c379a000000000000000000000000000000000000000000000000000000000815260040161189590612916565b60405180910390fd5b80600560008573ffffffffffffffffffffffffffffffffffffffff1673ffffffffffffffffffffffffffffffffffffffff16815260200190815260200160002060008473ffffffffffffffffffffffffffffffffffffffff1673ffffffffffffffffffffffffffffffffffffffff16815260200190815260200160002060006101000a81548160ff0219169083151502179055508173ffffffffffffffffffffffffffffffffffffffff168373ffffffffffffffffffffffffffffffffffffffff167f17307eab39ab6107e8899845ad3d59bd9653f200f220920489ca2b5937696c318360405161198f91906127e3565b60405180910390a3505050565b6119a78484846113b4565b6119b384848484611add565b6119f2576040517f08c379a00000000000000000000000000000000000000000000000000000000081526004016119e990612876565b60405180910390fd5b50505050565b60008073ffffffffffffffffffffffffffffffffffffffff16611a1a836116ae565b73ffffffffffffffffffffffffffffffffffffffff1614159050919050565b60606040518060400160405280601d81526020017f646174613a6170706c69636174696f6e2f6a736f6e3b6261736536342c000000815250905090565b611a808383611c74565b611a8d6000848484611add565b611acc576040517f08c379a0000000000000000000000000000000000000000000000000000000008152600401611ac390612876565b60405180910390fd5b505050565b50505050565b50505050565b6000611afe8473ffffffffffffffffffffffffffffffffffffffff16611e92565b15611c67578373ffffffffffffffffffffffffffffffffffffffff1663150b7a02611b27611240565b8786866040518563ffffffff1660e01b8152600401611b499493929190612797565b602060405180830381600087803b158015611b6357600080fd5b505af1925050508015611b9457506040513d601f19601f82011682018060405250810190611b919190612242565b60015b611c17573d8060008114611bc4576040519150601f19603f3d011682016040523d82523d6000602084013e611bc9565b606091505b50600081511415611c0f576040517f08c379a0000000000000000000000000000000000000000000000000000000008152600401611c0690612876565b60405180910390fd5b805181602001fd5b63150b7a0260e01b7bffffffffffffffffffffffffffffffffffffffffffffffffffffffff1916817bffffffffffffffffffffffffffffffffffffffffffffffffffffffff191614915050611c6c565b600190505b949350505050565b600073ffffffffffffffffffffffffffffffffffffffff168273ffffffffffffffffffffffffffffffffffffffff161415611ce4576040517f08c379a0000000000000000000000000000000000000000000000000000000008152600401611cdb90612956565b60405180910390fd5b611ced816119f8565b15611d2d576040517f08c379a0000000000000000000000000000000000000000000000000000000008152600401611d24906128d6565b60405180910390fd5b611d3b600083836001611ad1565b611d44816119f8565b15611d84576040517f08c379a0000000000000000000000000000000000000000000000000000000008152600401611d7b906128d6565b60405180910390fd5b6001600360008473ffffffffffffffffffffffffffffffffffffffff1673ffffffffffffffffffffffffffffffffffffffff16815260200190815260200160002060008282540192505081905550816002600083815260200190815260200160002060006101000a81548173ffffffffffffffffffffffffffffffffffffffff021916908373ffffffffffffffffffffffffffffffffffffffff160217905550808273ffffffffffffffffffffffffffffffffffffffff16600073ffffffffffffffffffffffffffffffffffffffff167fddf252ad1be2c89b69c2b068fc378daa952ba7f163c4a11628f55a4df523b3ef60405160405180910390a4611e8e600083836001611ad7565b5050565b6000808273ffffffffffffffffffffffffffffffffffffffff163b119050919050565b6000611ec8611ec384612a56565b612a31565b905082815260208101848484011115611ee457611ee3612e0c565b5b611eef848285612ca6565b509392505050565b6000611f0a611f0584612a87565b612a31565b905082815260208101848484011115611f2657611f25612e0c565b5b611f31848285612ca6565b509392505050565b600081359050611f48816132fc565b92915050565b600081359050611f5d81613313565b92915050565b600081359050611f728161332a565b92915050565b600081519050611f878161332a565b92915050565b600082601f830112611fa257611fa1612e07565b5b8135611fb2848260208601611eb5565b91505092915050565b600081359050611fca81613341565b92915050565b600081519050611fdf81613341565b92915050565b600082601f830112611ffa57611ff9612e07565b5b813561200a848260208601611ef7565b91505092915050565b60008135905061202281613358565b92915050565b60008151905061203781613358565b92915050565b60008151905061204c8161336f565b92915050565b60006020828403121561206857612067612e16565b5b600061207684828501611f39565b91505092915050565b6000806040838503121561209657612095612e16565b5b60006120a485828601611f39565b92505060206120b585828601611f39565b9150509250929050565b6000806000606084860312156120d8576120d7612e16565b5b60006120e686828701611f39565b93505060206120f786828701611f39565b925050604061210886828701612013565b9150509250925092565b6000806000806080858703121561212c5761212b612e16565b5b600061213a87828801611f39565b945050602061214b87828801611f39565b935050604061215c87828801612013565b925050606085013567ffffffffffffffff81111561217d5761217c612e11565b5b61218987828801611f8d565b91505092959194509250565b600080604083850312156121ac576121ab612e16565b5b60006121ba85828601611f39565b92505060206121cb85828601611f4e565b9150509250929050565b600080604083850312156121ec576121eb612e16565b5b60006121fa85828601611f39565b925050602061220b85828601612013565b9150509250929050565b60006020828403121561222b5761222a612e16565b5b600061223984828501611f63565b91505092915050565b60006020828403121561225857612257612e16565b5b600061226684828501611f78565b91505092915050565b60006020828403121561228557612284612e16565b5b600061229384828501611fbb565b91505092915050565b6000602082840312156122b2576122b1612e16565b5b600082013567ffffffffffffffff8111156122d0576122cf612e11565b5b6122dc84828501611fe5565b91505092915050565b6000602082840312156122fb576122fa612e16565b5b600061230984828501612013565b91505092915050565b600080600080600060a0868803121561232e5761232d612e16565b5b600061233c8882890161203d565b955050602061234d88828901611fd0565b945050604061235e88828901612028565b935050606061236f88828901612028565b92505060806123808882890161203d565b9150509295509295909350565b61239681612bdc565b82525050565b6123a581612bee565b82525050565b60006123b682612ab8565b6123c08185612ace565b93506123d0818560208601612cb5565b6123d981612e1b565b840191505092915050565b6123ed81612c70565b82525050565b6123fc81612c26565b82525050565b600061240d82612ac3565b6124178185612adf565b9350612427818560208601612cb5565b61243081612e1b565b840191505092915050565b600061244682612ac3565b6124508185612af0565b9350612460818560208601612cb5565b80840191505092915050565b6000612479602d83612adf565b915061248482612e2c565b604082019050919050565b600061249c600983612af0565b91506124a782612e7b565b600982019050919050565b60006124bf603283612adf565b91506124ca82612ea4565b604082019050919050565b60006124e2602683612adf565b91506124ed82612ef3565b604082019050919050565b6000612505602583612adf565b915061251082612f42565b604082019050919050565b6000612528601c83612adf565b915061253382612f91565b602082019050919050565b600061254b602483612adf565b915061255682612fba565b604082019050919050565b600061256e601983612adf565b915061257982613009565b602082019050919050565b6000612591602983612adf565b915061259c82613032565b604082019050919050565b60006125b4604483612af0565b91506125bf82613081565b604482019050919050565b60006125d7600283612af0565b91506125e2826130f6565b600282019050919050565b60006125fa602083612adf565b91506126058261311f565b602082019050919050565b600061261d602083612adf565b915061262882613148565b602082019050919050565b6000612640602f83612adf565b915061264b82613171565b604082019050919050565b6000612663601883612adf565b915061266e826131c0565b602082019050919050565b6000612686602183612adf565b9150612691826131e9565b604082019050919050565b60006126a9603d83612adf565b91506126b482613238565b604082019050919050565b60006126cc604383612af0565b91506126d782613287565b604382019050919050565b6126eb81612c50565b82525050565b60006126fd828461243b565b915081905092915050565b6000612714828561243b565b9150612720828461243b565b91508190509392505050565b60006127378261248f565b9150612743828561243b565b915061274e826125a7565b9150612759826126bf565b9150612765828461243b565b9150612770826125ca565b91508190509392505050565b6000602082019050612791600083018461238d565b92915050565b60006080820190506127ac600083018761238d565b6127b9602083018661238d565b6127c660408301856126e2565b81810360608301526127d881846123ab565b905095945050505050565b60006020820190506127f8600083018461239c565b92915050565b600060208201905061281360008301846123e4565b92915050565b600060208201905061282e60008301846123f3565b92915050565b6000602082019050818103600083015261284e8184612402565b905092915050565b6000602082019050818103600083015261286f8161246c565b9050919050565b6000602082019050818103600083015261288f816124b2565b9050919050565b600060208201905081810360008301526128af816124d5565b9050919050565b600060208201905081810360008301526128cf816124f8565b9050919050565b600060208201905081810360008301526128ef8161251b565b9050919050565b6000602082019050818103600083015261290f8161253e565b9050919050565b6000602082019050818103600083015261292f81612561565b9050919050565b6000602082019050818103600083015261294f81612584565b9050919050565b6000602082019050818103600083015261296f816125ed565b9050919050565b6000602082019050818103600083015261298f81612610565b9050919050565b600060208201905081810360008301526129af81612633565b9050919050565b600060208201905081810360008301526129cf81612656565b9050919050565b600060208201905081810360008301526129ef81612679565b9050919050565b60006020820190508181036000830152612a0f8161269c565b9050919050565b6000602082019050612a2b60008301846126e2565b92915050565b6000612a3b612a4c565b9050612a478282612d1a565b919050565b6000604051905090565b600067ffffffffffffffff821115612a7157612a70612dd8565b5b612a7a82612e1b565b9050602081019050919050565b600067ffffffffffffffff821115612aa257612aa1612dd8565b5b612aab82612e1b565b9050602081019050919050565b600081519050919050565b600081519050919050565b600082825260208201905092915050565b600082825260208201905092915050565b600081905092915050565b6000612b0682612c50565b9150612b1183612c50565b9250827fffffffffffffffffffffffffffffffffffffffffffffffffffffffffffffffff03821115612b4657612b45612d4b565b5b828201905092915050565b6000612b5c82612c50565b9150612b6783612c50565b925082612b7757612b76612d7a565b5b828204905092915050565b6000612b8d82612c50565b9150612b9883612c50565b9250817fffffffffffffffffffffffffffffffffffffffffffffffffffffffffffffffff0483118215151615612bd157612bd0612d4b565b5b828202905092915050565b6000612be782612c30565b9050919050565b60008115159050919050565b60007fffffffff0000000000000000000000000000000000000000000000000000000082169050919050565b6000819050919050565b600073ffffffffffffffffffffffffffffffffffffffff82169050919050565b6000819050919050565b600069ffffffffffffffffffff82169050919050565b6000612c7b82612c82565b9050919050565b6000612c8d82612c94565b9050919050565b6000612c9f82612c30565b9050919050565b82818337600083830152505050565b60005b83811015612cd3578082015181840152602081019050612cb8565b83811115612ce2576000848401525b50505050565b60006002820490506001821680612d0057607f821691505b60208210811415612d1457612d13612da9565b5b50919050565b612d2382612e1b565b810181811067ffffffffffffffff82111715612d4257612d41612dd8565b5b80604052505050565b7f4e487b7100000000000000000000000000000000000000000000000000000000600052601160045260246000fd5b7f4e487b7100000000000000000000000000000000000000000000000000000000600052601260045260246000fd5b7f4e487b7100000000000000000000000000000000000000000000000000000000600052602260045260246000fd5b7f4e487b7100000000000000000000000000000000000000000000000000000000600052604160045260246000fd5b600080fd5b600080fd5b600080fd5b600080fd5b6000601f19601f8301169050919050565b7f4552433732313a2063616c6c6572206973206e6f7420746f6b656e206f776e6560008201527f72206f7220617070726f76656400000000000000000000000000000000000000602082015250565b7f7b226e616d65223a220000000000000000000000000000000000000000000000600082015250565b7f4552433732313a207472616e7366657220746f206e6f6e20455243373231526560008201527f63656976657220696d706c656d656e7465720000000000000000000000000000602082015250565b7f4f776e61626c653a206e6577206f776e657220697320746865207a65726f206160008201527f6464726573730000000000000000000000000000000000000000000000000000602082015250565b7f4552433732313a207472616e736665722066726f6d20696e636f72726563742060008201527f6f776e6572000000000000000000000000000000000000000000000000000000602082015250565b7f4552433732313a20746f6b656e20616c7265616479206d696e74656400000000600082015250565b7f4552433732313a207472616e7366657220746f20746865207a65726f2061646460008201527f7265737300000000000000000000000000000000000000000000000000000000602082015250565b7f4552433732313a20617070726f766520746f2063616c6c657200000000000000600082015250565b7f4552433732313a2061646472657373207a65726f206973206e6f74206120766160008201527f6c6964206f776e65720000000000000000000000000000000000000000000000602082015250565b7f222c20226465736372697074696f6e223a22416e204e4654207468617420636860008201527f616e676573206261736564206f6e2074686520436861696e6c696e6b2046656560208201527f64222c2000000000000000000000000000000000000000000000000000000000604082015250565b7f227d000000000000000000000000000000000000000000000000000000000000600082015250565b7f4552433732313a206d696e7420746f20746865207a65726f2061646472657373600082015250565b7f4f776e61626c653a2063616c6c6572206973206e6f7420746865206f776e6572600082015250565b7f4552433732314d657461646174613a2055524920717565727920666f72206e6f60008201527f6e6578697374656e7420746f6b656e0000000000000000000000000000000000602082015250565b7f4552433732313a20696e76616c696420746f6b656e2049440000000000000000600082015250565b7f4552433732313a20617070726f76616c20746f2063757272656e74206f776e6560008201527f7200000000000000000000000000000000000000000000000000000000000000602082015250565b7f4552433732313a20617070726f76652063616c6c6572206973206e6f7420746f60008201527f6b656e206f776e6572206f7220617070726f76656420666f7220616c6c000000602082015250565b7f2261747472696275746573223a205b7b2274726169745f74797065223a20226360008201527f6f6f6c6e657373222c202276616c7565223a203130307d5d2c2022696d61676560208201527f223a220000000000000000000000000000000000000000000000000000000000604082015250565b61330581612bdc565b811461331057600080fd5b50565b61331c81612bee565b811461332757600080fd5b50565b61333381612bfa565b811461333e57600080fd5b50565b61334a81612c26565b811461335557600080fd5b50565b61336181612c50565b811461336c57600080fd5b50565b61337881612c5a565b811461338357600080fd5b5056fe4142434445464748494a4b4c4d4e4f505152535455565758595a6162636465666768696a6b6c6d6e6f707172737475767778797a303132333435363738392b2fa2646970667358221220875a4ed8a9d1cfdc606e7ca31547559b835cf3aa924bf7387f626ef4f98d60fa64736f6c634300080700334142434445464748494a4b4c4d4e4f505152535455565758595a6162636465666768696a6b6c6d6e6f707172737475767778797a303132333435363738392b2f",
  "devdoc": {
    "kind": "dev",
    "methods": {
      "approve(address,uint256)": {
        "details": "See {IERC721-approve}."
      },
      "balanceOf(address)": {
        "details": "See {IERC721-balanceOf}."
      },
      "getApproved(uint256)": {
        "details": "See {IERC721-getApproved}."
      },
      "isApprovedForAll(address,address)": {
        "details": "See {IERC721-isApprovedForAll}."
      },
      "name()": {
        "details": "See {IERC721Metadata-name}."
      },
      "owner()": {
        "details": "Returns the address of the current owner."
      },
      "ownerOf(uint256)": {
        "details": "See {IERC721-ownerOf}."
      },
      "renounceOwnership()": {
        "details": "Leaves the contract without owner. It will not be possible to call `onlyOwner` functions. Can only be called by the current owner. NOTE: Renouncing ownership will leave the contract without an owner, thereby disabling any functionality that is only available to the owner."
      },
      "safeTransferFrom(address,address,uint256)": {
        "details": "See {IERC721-safeTransferFrom}."
      },
      "safeTransferFrom(address,address,uint256,bytes)": {
        "details": "See {IERC721-safeTransferFrom}."
      },
      "setApprovalForAll(address,bool)": {
        "details": "See {IERC721-setApprovalForAll}."
      },
      "supportsInterface(bytes4)": {
        "details": "See {IERC165-supportsInterface}."
      },
      "symbol()": {
        "details": "See {IERC721Metadata-symbol}."
      },
      "tokenURI(uint256)": {
        "details": "See {IERC721Metadata-tokenURI}."
      },
      "transferFrom(address,address,uint256)": {
        "details": "See {IERC721-transferFrom}."
      },
      "transferOwnership(address)": {
        "details": "Transfers ownership of the contract to a new account (`newOwner`). Can only be called by the current owner."
      }
    },
    "version": 1
  },
  "userdoc": {
    "kind": "user",
    "methods": {},
    "version": 1
  },
  "storageLayout": {
    "storage": [
      {
        "astId": 1587,
        "contract": "contracts/DynamicNFT.sol:DynamicSvgNft",
        "label": "_name",
        "offset": 0,
        "slot": "0",
        "type": "t_string_storage"
      },
      {
        "astId": 1589,
        "contract": "contracts/DynamicNFT.sol:DynamicSvgNft",
        "label": "_symbol",
        "offset": 0,
        "slot": "1",
        "type": "t_string_storage"
      },
      {
        "astId": 1593,
        "contract": "contracts/DynamicNFT.sol:DynamicSvgNft",
        "label": "_owners",
        "offset": 0,
        "slot": "2",
        "type": "t_mapping(t_uint256,t_address)"
      },
      {
        "astId": 1597,
        "contract": "contracts/DynamicNFT.sol:DynamicSvgNft",
        "label": "_balances",
        "offset": 0,
        "slot": "3",
        "type": "t_mapping(t_address,t_uint256)"
      },
      {
        "astId": 1601,
        "contract": "contracts/DynamicNFT.sol:DynamicSvgNft",
        "label": "_tokenApprovals",
        "offset": 0,
        "slot": "4",
        "type": "t_mapping(t_uint256,t_address)"
      },
      {
        "astId": 1607,
        "contract": "contracts/DynamicNFT.sol:DynamicSvgNft",
        "label": "_operatorApprovals",
        "offset": 0,
        "slot": "5",
        "type": "t_mapping(t_address,t_mapping(t_address,t_bool))"
      },
      {
        "astId": 1428,
        "contract": "contracts/DynamicNFT.sol:DynamicSvgNft",
        "label": "_owner",
        "offset": 0,
        "slot": "6",
        "type": "t_address"
      },
      {
        "astId": 4591,
        "contract": "contracts/DynamicNFT.sol:DynamicSvgNft",
        "label": "s_tokenCounter",
        "offset": 0,
        "slot": "7",
        "type": "t_uint256"
      },
      {
        "astId": 4593,
        "contract": "contracts/DynamicNFT.sol:DynamicSvgNft",
        "label": "s_lowImageURI",
        "offset": 0,
        "slot": "8",
        "type": "t_string_storage"
      },
      {
        "astId": 4595,
        "contract": "contracts/DynamicNFT.sol:DynamicSvgNft",
        "label": "s_highImageURI",
        "offset": 0,
        "slot": "9",
        "type": "t_string_storage"
      },
      {
        "astId": 4599,
        "contract": "contracts/DynamicNFT.sol:DynamicSvgNft",
        "label": "s_tokenIdToHighValues",
        "offset": 0,
        "slot": "10",
        "type": "t_mapping(t_uint256,t_int256)"
      }
    ],
    "types": {
      "t_address": {
        "encoding": "inplace",
        "label": "address",
        "numberOfBytes": "20"
      },
      "t_bool": {
        "encoding": "inplace",
        "label": "bool",
        "numberOfBytes": "1"
      },
      "t_int256": {
        "encoding": "inplace",
        "label": "int256",
        "numberOfBytes": "32"
      },
      "t_mapping(t_address,t_bool)": {
        "encoding": "mapping",
        "key": "t_address",
        "label": "mapping(address => bool)",
        "numberOfBytes": "32",
        "value": "t_bool"
      },
      "t_mapping(t_address,t_mapping(t_address,t_bool))": {
        "encoding": "mapping",
        "key": "t_address",
        "label": "mapping(address => mapping(address => bool))",
        "numberOfBytes": "32",
        "value": "t_mapping(t_address,t_bool)"
      },
      "t_mapping(t_address,t_uint256)": {
        "encoding": "mapping",
        "key": "t_address",
        "label": "mapping(address => uint256)",
        "numberOfBytes": "32",
        "value": "t_uint256"
      },
      "t_mapping(t_uint256,t_address)": {
        "encoding": "mapping",
        "key": "t_uint256",
        "label": "mapping(uint256 => address)",
        "numberOfBytes": "32",
        "value": "t_address"
      },
      "t_mapping(t_uint256,t_int256)": {
        "encoding": "mapping",
        "key": "t_uint256",
        "label": "mapping(uint256 => int256)",
        "numberOfBytes": "32",
        "value": "t_int256"
      },
      "t_string_storage": {
        "encoding": "bytes",
        "label": "string",
        "numberOfBytes": "32"
      },
      "t_uint256": {
        "encoding": "inplace",
        "label": "uint256",
        "numberOfBytes": "32"
      }
    }
  }
}